:10000000000188D200BC70D30000049101000014EC
:100010000A009F520BFC8052EC038052024080D2B7
:10002000014080D2EE030A2AE40380D2420400D1C8
:100030005F0000F1C00600540E0000780008009137
:10004000210400D1CE010111840400D164FFFFB569
:10005000E40380D20E00007800080091210400D152
:10006000CE012051840400D164FFFFB5E40380D2A7
:10007000EE030B2A0E00007800080091210400D145
:10008000CE050011840400D164FFFFB5E40380D2E3
:100090008E010B0B0E00007800080091210400D1A6
:1000A000CE010151840400D164FFFFB5E40380D286
:1000B000EE030C2A0E00007800080091210400D104
:1000C000CE012011840400D164FFFFB5E40380D287
:1000D0004E010C0B0E00007800080091210400D1A5
:1000E000CE050051840400D164FFFFB500080091E3
:1000F000210400D1C1FFFFB5CAFFFF17420400D1A0
:100100002700018BE000008BC2F8FFB5000000144F
:0801100000000840000000009F
:00000001FF
